:100000000C9434000C9451000C9451000C94510049
:100010000C9451000C9451000C9451000C9451001C
:100020000C9451000C9451000C9451000C9451000C
:100030000C9451000C9451000C94F6010C94510056
:100040000C9451000C9451000C949D010C9451009F
:100050000C9451000C9451000C9451000C945100DC
:100060000C9451000C94510011241FBECFEFD8E026
:10007000DEBFCDBF11E0A0E0B1E0EAEAFAE002C0E5
:1000800005900D92AA34B107D9F721E0AAE4B1E0B6
:1000900001C01D92AB36B207E1F70E9462020C94D8
:1000A00053050C94000010924E01089588E08AB91F
:1000B00084B983EA8093B00082E08093B1008FE539
:1000C0008093B3008093B40008950895089508952F
:1000D0000895089508950895089520916501309137
:1000E000660128173907C1F490915301809152019C
:1000F000981791F0E091520181E08E0F80935201A8
:10010000F0E0E15BFE4F868190915201903110F05A
:100110001092520190E008958EEF9FEF0895209184
:100120006701309168012617370751F49091C0009C
:1001300095FFFCCF8093C600082E000C990B089504
:100140008EEF9FEF089586E1EFE4F1E0DF011D926D
:100150008A95E9F7BFEF22E587E0B1502040804063
:10016000E1F700C0000087EC87BD82E084BD85BD5B
:1001700080936E0085BB92E29093C4001092C500FC
:100180008093C00086E08093C20088E98093C1001C
:1001900080E284B915B8E5E6F1E08EE091E0938362
:1001A000828380E091E091838083089508958F3F5A
:1001B00011F08F5F08958FEF08958F3F2FEF920713
:1001C00011F0019608958FEF9FEF089580914F01F0
:1001D00087FF0895789408958FB7EFE4F1E0908158
:1001E0008078892B8083F894089586E491E09F932A
:1001F0008F930E9488020F900F9008959091530161
:1002000080915201981738F48091530190915201D6
:10021000805F891B08958091530190915201891B41
:100220000895CF93C82F9FB720914F019078922BBC
:1002300090934F01F8940E94FE00C817A0F490918B
:100240005201EC2FE90FE03160F4F0E0E15BFE4F8A
:10025000868190E020914F0127FF01C07894CF91D3
:100260000895E051F2CF8FEF9FEFF4CF8FB79091C9
:100270004F018078892B80934F01F8948091C000C2
:1002800087FF08C08091C600809355018091C0000F
:1002900087FDF8CF10925201109253011092540131
:1002A00080914F0187FF0895789408952FB730917A
:1002B0004F012078232B20934F01F8942091510176
:1002C000282331E009F430E090915101982B90936C
:1002D000510180914F0187FF01C07894832F0895C9
:1002E000982F8FB720914F018078822B80934F01F8
:1002F000F89420915101292381E009F480E02091B4
:100300005101909592239093510190914F0197FF45
:1003100008957894089590915101982381E009F40B
:1003200080E00895811102C02D9808952D9A0895B6
:1003300095B180E2892785B908951F920F920FB673
:100340000F9211248F939F93EF93FF938091C60098
:10035000823539F180934D01E091530191E09E0F78
:1003600090935301F0E0E15BFE4F8683809153014F
:10037000803110F0109253019091530180915201FD
:100380009817F9F0E0915301F0E0E15BFE4F16821F
:10039000FF91EF919F918F910F900FBE0F901F9043
:1003A000189590914D019034A9F698E088E10FB628
:1003B000F894A895809360000FBE90936000A89574
:1003C000FFCF8091530181110BC08FE080935301C7
:1003D000809154018F3F09F08F5F80935401D2CFF9
:1003E00080915301815080935301F2CF1F920F925D
:1003F0000FB60F9211242F933F934F935F936F93F8
:100400007F938F939F93AF93BF93EF93FF938091CD
:100410004C018F5F8530E0F110924C0180914B01CF
:100420008F5F80934B0180914A018823C1F08091B6
:1004300050018F3F09F08F5F80935001FF91EF9142
:10044000BF91AF919F918F917F916F915F914F91EC
:100450003F912F910F900FBE0F901F90189581E044
:1004600080934A01789480914B0180FD19C081FDF1
:1004700012C082FD1BC083FD1CC084FD1DC085FD14
:1004800012C086FD1CC087FF08C00E946C0005C01A
:1004900080934C01D3CF0E94660010924A01CECFC8
:1004A0000E946500FACF0E946A00F7CF0E946700A1
:1004B000F4CF0E946800F1CF0E946900EECF0E9445
:1004C0006B00EBCF0E94A3000E9453008CE191E0EF
:1004D0009F938F9385E291E09F938F9381E391E0C7
:1004E0009F938F938EE391E09F938F930E94880256
:1004F0000E94F50078948DB79EB708960FB6F894D1
:100500009EBF0FBE8DBF0E94D6000E945600FBCF3B
:10051000A0E0B0E0EEE8F2E00C942C05AE014B5FF9
:100520005F4FFA0161917191AF01809167019091E4
:1005300068010E949E02E2E00C944805ACE0B0E045
:10054000E4EAF2E00C941C057C016B018A01FC01D9
:1005500017821682838181FFBDC1CE0101964C01B5
:10056000F7019381F60193FD859193FF81916F01CE
:10057000882309F4ABC1853239F493FD859193FF4B
:1005800081916F01853229F4B70190E00E948604C1
:10059000E7CF512C312C20E02032A0F48B3269F0CF
:1005A00030F4803259F0833269F420612CC08D32EE
:1005B00039F0803339F4216026C02260246023C0E2
:1005C000286021C027FD27C030ED380F3A3078F47D
:1005D00026FF06C0FAE05F9E300D1124532E13C093
:1005E0008AE0389E300D1124332E20620CC08E32EA
:1005F00021F426FD6BC1206406C08C3611F42068FE
:1006000002C0883641F4F60193FD859193FF8191F4
:100610006F018111C1CF982F9F7D9554933028F49D
:100620000C5F1F4FFFE3F9830DC0833631F0833732
:1006300071F0833509F05BC022C0F80180818983A5
:100640000E5F1F4F44244394512C540115C03801B0
:10065000F2E06F0E711CF801A080B18026FF03C08C
:10066000652D70E002C06FEF7FEFC5012C870E94FF
:100670007B042C0183012C852F77222E17C0380193
:10068000F2E06F0E711CF801A080B18026FF03C05C
:10069000652D70E002C06FEF7FEFC5012C870E94CF
:1006A00070042C012C852068222E830123FC1BC0A2
:1006B000832D90E048165906B0F4B70180E290E02F
:1006C0000E9486043A94F4CFF50127FC859127FE19
:1006D00081915F01B70190E00E94860431103A9445
:1006E000F1E04F1A51084114510471F7E5C0843606
:1006F00011F0893639F5F80127FF07C06081718153
:10070000828193810C5F1F4F08C060817181072E29
:10071000000C880B990B0E5F1F4F2F76722E97FFE0
:1007200009C090958095709561957F4F8F4F9F4F31
:100730002068722E2AE030E0A4010E94BE04A82E98
:10074000A81844C0853729F42F7EB22E2AE030E065
:1007500025C0F22FF97FBF2E8F36C1F018F48835EF
:1007600079F0B4C0803719F0883721F0AFC02F2F4F
:100770002061B22EB4FE0DC08B2D8460B82E09C04E
:1007800024FF0AC09F2F9660B92E06C028E030E0F3
:1007900005C020E130E002C020E132E0F801B7FE00
:1007A00007C060817181828193810C5F1F4F06C0F9
:1007B0006081718180E090E00E5F1F4FA4010E9474
:1007C000BE04A82EA818FB2DFF777F2E76FE0BC047
:1007D000372D3E7FA51450F474FE0AC072FC08C089
:1007E000372D3E7E05C0BA2C372D03C0BA2C01C070
:1007F000B52C34FF0DC0FE01EA0DF11D8081803360
:1008000011F4397E09C032FF06C0B394B39404C01A
:10081000832F867809F0B39433FD13C030FF06C0F0
:100820005A2CB31418F4530C5B18B32CB31468F49B
:10083000B70180E290E03C870E948604B3943C8537
:10084000F5CFB31410F43B1801C0312C34FF12C0A3
:10085000B70180E390E03C870E9486043C8532FF2C
:1008600017C031FD03C088E790E002C088E590E042
:10087000B7010CC0832F867859F031FF02C08BE29C
:1008800001C080E237FD8DE2B70190E00E9486044E
:10089000A51438F4B70180E390E00E9486045A94CE
:1008A000F7CFAA94F401EA0DF11D8081B70190E021
:1008B0000E948604A110F5CF332009F451CEB70170
:1008C00080E290E00E9486043A94F6CFF701868198
:1008D000978102C08FEF9FEF2C96E2E10C943805D0
:1008E000FC010590615070400110D8F780959095FB
:1008F0008E0F9F1F0895FC01615070400190011000
:10090000D8F7809590958E0F9F1F08950F931F9392
:10091000CF93DF93FB01238121FD03C08FEF9FEF76
:1009200028C022FF16C04681578124813581421795
:10093000530744F4A081B1819D012F5F3F4F318364
:1009400020838C93268137812F5F3F4F3783268307
:1009500010C0EB01092F182F0084F185E02D0995B7
:10096000892BE1F68E819F8101969F838E83812F53
:10097000902FDF91CF911F910F910895FA01AA272F
:10098000283051F1203181F1E8946F936E7F6E5FD2
:100990007F4F8F4F9F4FAF4FB1E03ED0B4E03CD080
:1009A000670F781F891F9A1FA11D680F791F8A1F63
:1009B000911DA11D6A0F711D811D911DA11D20D0CA
:1009C00009F468943F912AE0269F11243019305D84
:1009D0003193DEF6CF010895462F4770405D419375
:1009E000B3E00FD0C9F7F6CF462F4F70405D4A33C2
:1009F00018F0495D31FD4052419302D0A9F7EACF8A
:100A0000B4E0A6959795879577956795BA95C9F7B8
:100A100000976105710508959B01AC010A2E0694AB
:100A20005795479537952795BA95C9F7620F731F64
:100A3000841F951FA01D08952F923F924F925F92A1
:100A40006F927F928F929F92AF92BF92CF92DF92DE
:100A5000EF92FF920F931F93CF93DF93CDB7DEB743
:100A6000CA1BDB0B0FB6F894DEBF0FBECDBF0994D7
:100A70002A88398848885F846E847D848C849B842E
:100A8000AA84B984C884DF80EE80FD800C811B813C
:100A9000AA81B981CE0FD11D0FB6F894DEBF0FBE6B
:0A0AA000CDBFED010895F894FFCFDB
:100AAA00000000010000000000006D0000000000CE
:100ABA000002000000008F000000000030393A33C5
:100ACA00333A3131004D61722020352032303138CD
:100ADA00000A0D50726F6772616D6D203F002573B9
:0A0AEA002025732025730A0D00007B
:00000001FF
